0210066600999992010010100004+47383+008567FM-12+056999999V0209999C000010180019N0070001N1+00401+00321099271ADDAY121061AY221061GA1071+018001031GF107991071001017501031999MA1999999092741MD1810131+9999MW1041OA149900571REMSYN094AAXX  01004 06660 31757 70000 10040 20032 39274 49927 58013 70422 8703/ 333 87356 91111 91205;
0128066600999992010010101004+47383+008567FM-12+056999999V0200901N000519999999N9999999N1+00411+00321099241ADDMA1999999092711MD1810111+9999OA149900151REMSYN076AAXX  01014 06660 33/// /0901 10041 20032 39271 49924 58011 333 91103 91201;
0128066600999992010010102004+47383+008567FM-12+056999999V0200501N002119999999N9999999N1+00361+00301099231ADDMA1999999092691MD1719999+9999OA149900311REMSYN076AAXX  01024 06660 33/// /0504 10036 20030 39269 49923 57/// 333 91106 91204;
0087066600999992010010103004+47383+008567FM-12+056999999V0200601N001019999999N9999999N1+00391+00311099141ADDMA1999999092621REMSYN060AAXX  01034 06660 43/// /0602 10039 20031 39262 49914 5////;
0087066600999992010010104004+47383+008567FM-12+056999999V0202201N000519999999N9999999N1+00391+00281099111ADDMA1999999092591REMSYN060AAXX  01044 06660 33/// /2201 10039 20028 39259 49911 5////;
0128066600999992010010105004+47383+008567FM-12+056999999V0209999C000019999999N9999999N1+00351+00291099091ADDMA1999999092561MD1610131+9999OA149900211REMSYN076AAXX  01054 06660 33/// /0000 10035 20029 39256 49909 56013 333 91104 91202;
0304066600999992010010106004+47383+008567FM-12+056999999V0203501N000510001519N0001001N1+00351+00271099081ADDAA124004391AL11800491AL29900091AY141061AY221061GA1091+999999999GF109991091999999999999999GJ100009IA1119IA2999+00109KA1999N+00311MA1999999092551MD1610071+9999MW1471OA149900411REMSYN118AAXX  01064 06660 31/01 93501 10035 20027 39255 49908 56007 74742 333 20031 32001 55000 70043 90768 93100 91108 91206;
0128066600999992010010107004+47383+008567FM-12+056999999V0200601N001019999999N9999999N1+00241+00221099101ADDMA1999999092541MD1610051+9999OA149900311REMSYN076AAXX  01074 06660 33/// /0602 10024 20022 39254 49910 56005 333 91106 91204;
0128066600999992010010108004+47383+008567FM-12+056999999V0200801N001019999999N9999999N1+00211+00161099151ADDMA1999999092581MD1310021+9999OA149900311REMSYN076AAXX  01084 06660 33/// /0802 10021 20016 39258 49915 53002 333 91106 91204;
0198066600999992010010109004+47383+008567FM-12+056999999V0201801N000510003019N0005001N1+00281+00211099171ADDAY141031AY241031GA1091+999999999GF109991091999999999999999MA1999999092621MD1210071+9999MW1451OA149900311REMSYN082AAXX  01094 06660 31/05 91801 10028 20021 39262 49917 52007 74544 333 91106 91204;
0128066600999992010010110004+47383+008567FM-12+056999999V0200501N002119999999N9999999N1+00261+00241099251ADDMA1999999092691MD1310151+9999OA149900361REMSYN076AAXX  01104 06660 33/// /0504 10026 20024 39269 49925 53015 333 91107 91204;
0128066600999992010010111004+47383+008567FM-12+056999999V0200401N001519999999N9999999N1+00221+00171099281ADDMA1999999092711MD1110131+9999OA149900411REMSYN076AAXX  01114 06660 33/// /0403 10022 20017 39271 49928 51013 333 91108 91204;
0198066600999992010010112004+47383+008567FM-12+056999999V0202601N000510003019N0003001N1+00291+00221099271ADDAY141061AY241061GA1091+999999999GF109991091999999999999999MA1999999092711MD1210091+9999MW1451OA149900411REMSYN082AAXX  01124 06660 31/03 92601 10029 20022 39271 49927 52009 74544 333 91108 91206;
0128066600999992010010113004+47383+008567FM-12+056999999V0202501N001019999999N9999999N1+00321+00251099291ADDMA1999999092741MD1210051+9999OA149900211REMSYN076AAXX  01134 06660 33/// /2502 10032 20025 39274 49929 52005 333 91104 91202;
0128066600999992010010114004+47383+008567FM-12+056999999V0203401N000519999999N9999999N1+00361+00251099341ADDMA1999999092801MD1219999+9999OA149900211REMSYN076AAXX  01144 06660 33/// /3401 10036 20025 39280 49934 52/// 333 91104 91202;
0227066600999992010010115004+47383+008567FM-12+056999999V0203601N000510006019N0025001N1+00371+00261099451ADDAA101000021AY161031AY241031GA1081+000601071GF108991081071000251999999MA1999999092901MD1310191+9999MW1601OA149900411REMSYN100AAXX  01154 06660 21025 83601 10037 20026 39290 49945 53019 76064 887// 333 69915 88702 91108 91204;
0145066600999992010010116004+47383+008567FM-12+056999999V0203201N001519999999N9999999N1+00371+00271099561ADDAA101000021MA1999999093001MD1310261+9999OA149900311REMSYN082AAXX  01164 06660 23/// /3203 10037 20027 39300 49956 53026 333 69915 91106 91203;
0145066600999992010010117004+47383+008567FM-12+056999999V0202901N003119999999N9999999N1+00271+00151099731ADDAA101001091MA1999999093141MD1310341+9999OA149901031REMSYN082AAXX  01174 06660 23/// /2906 10027 20015 39314 49973 53034 333 60015 91120 91208;
0308066600999992010010118004+47383+008567FM-12+056999999V0202801N004110036019N0045001N1+00201+00101099911ADDAA112003091AL19900091AY161061AY241061GA1031+001501071GA2081+003601051GF108991031071001501021999IA1119KA1120M+00381MA1999999093291MD1310391+9999MW1631OA149901031REMSYN136AAXX  01184 06660 01245 82808 10020 20010 39329 49991 53039 60032 76364 8372/ 333 10038 32/// 60015 83705 88512 90766 93100 91120 91208;
0145066600999992010010119004+47383+008567FM-12+056999999V0202501N004619999999N9999999N1+00111+00031100131ADDAA101001091MA1999999093471MD1310471+9999OA149900981REMSYN082AAXX  01194 06660 23/// /2509 10011 20003 39347 40013 53047 333 60015 91119 91209;
0145066600999992010010120004+47383+008567FM-12+056999999V0202701N004119999999N9999999N1+00051-00041100311ADDAA101001091MA1999999093631MD1210491+9999OA149900931REMSYN082AAXX  01204 06660 23/// /2708 10005 21004 39363 40031 52049 333 60015 91118 91210;
0145066600999992010010121004+47383+008567FM-12+056999999V0202601N003619999999N9999999N1+00031-00051100461ADDAA101000591MA1999999093761MD1110471+9999OA149901031REMSYN082AAXX  01214 06660 23/// /2607 10003 21005 39376 40046 51047 333 69955 91120 91210;
0128066600999992010010122004+47383+008567FM-12+056999999V0202701N004119999999N9999999N1+00031-00141100551ADDMA1999999093851MD1110381+9999OA149900981REMSYN076AAXX  01224 06660 33/// /2708 10003 21014 39385 40055 51038 333 91119 91210;
0128066600999992010010123004+47383+008567FM-12+056999999V0202901N003619999999N9999999N1-00011-00171100691ADDMA1999999093971MD1110341+9999OA149900881REMSYN076AAXX  01234 06660 33/// /2907 11001 21017 39397 40069 51034 333 91117 91208;
0277066600999992010010200004+47383+008567FM-12+056999999V0202701N005110036019N0080001N1-00091-00341100801ADDAA106003091AY171061AY221061GA1021+001501071GA2041+003601061GA3071+006601061GF108991081051001501999999MA1999999094051MD1310291+9999MW1711OA149901241REMSYN118AAXX  02004 06660 01258 82710 11009 21034 39405 40080 53029 60031 77172 885// 333 60005 82705 84612 87622 91124 91210;
0128066600999992010010201004+47383+008567FM-12+056999999V0202701N005119999999N9999999N1-00141-00401100931ADDMA1999999094161MD1210311+9999OA149901241REMSYN076AAXX  02014 06660 33/// /2710 11014 21040 39416 40093 52031 333 91124 91212;
0108066600999992010010202004+47383+008567FM-12+056999999V0202801N004619999999N9999999N1-00181-00361101071ADDAA101000021MA1999999094281REMSYN070AAXX  02024 06660 23/// /2809 11018 21036 39428 40107 5//// 333 69925;
0128066600999992010010203004+47383+008567FM-12+056999999V0202501N004119999999N9999999N1-00171-00511101161ADDMA1999999094371MD1110321+9999OA149901241REMSYN076AAXX  02034 06660 33/// /2508 11017 21051 39437 40116 51032 333 91124 91212;
0128066600999992010010204004+47383+008567FM-12+056999999V0202701N004619999999N9999999N1-00181-00561101251ADDMA1999999094451MD1110291+9999OA149901081REMSYN076AAXX  02044 06660 33/// /2709 11018 21056 39445 40125 51029 333 91121 91210;
0128066600999992010010205004+47383+008567FM-12+056999999V0202701N005119999999N9999999N1-00181-00561101341ADDMA1999999094531MD1110251+9999OA149900981REMSYN076AAXX  02054 06660 33/// /2710 11018 21056 39453 40134 51025 333 91119 91210;
0406066600999992010010206004+47383+008567FM-12+056999999V0202501N003110030019N0100001N1-00191-00531101401ADDAA112003091AA224005691AJ100019199999999AL14200591AL29900191AY171061AY221061GA1021+001501071GA2031+003001061GA3071+007501061GF107991071051001501999999GJ100009IA1279IA2999-00309KA1999N-00201MA1999999094591MD1210221+9999MW1101OA149901241REMSYN160AAXX  02064 06660 01260 72506 11019 21053 39459 40140 52022 60032 71072 875// 333 21020 3/103 43001 55000 60005 70057 82705 83610 87625 90768 93101 91124 91212;
0128066600999992010010207004+47383+008567FM-12+056999999V0202601N003119999999N9999999N1-00241-00651101521ADDMA1999999094691MD1210241+9999OA149900881REMSYN076AAXX  02074 06660 33/// /2606 11024 21065 39469 40152 52024 333 91117 91209;
0087066600999992010010208004+47383+008567FM-12+056999999V0202801N004619999999N9999999N1-00261-00691101631ADDMA1999999094781REMSYN060AAXX  02084 06660 33/// /2809 11026 21069 39478 40163 5////;
0232066600999992010010209004+47383+008567FM-12+056999999V0202801N004110084019N0150001N1-00251-00721101731ADDAY171031AY221031GA1021+005401071GA2051+008401061GF105991051051004501001001MA1999999094881MD1210291+9999MW1051OA149900981REMSYN100AAXX  02094 06660 31465 52808 11025 21072 39488 40173 52029 70572 85500 333 82718 85628 91119 91210;
0128066600999992010010210004+47383+008567FM-12+056999999V0202801N005119999999N9999999N1-00201-00671101831ADDMA1999999094981MD1210291+9999OA149900931REMSYN076AAXX  02104 06660 33/// /2810 11020 21067 39498 40183 52029 333 91118 91210;
0128066600999992010010211004+47383+008567FM-12+056999999V0202501N003119999999N9999999N1-00201-00651101891ADDMA1999999095041MD1110261+9999OA149900931REMSYN076AAXX  02114 06660 33/// /2506 11020 21065 39504 40189 51026 333 91118 91210;
0210066600999992010010212004+47383+008567FM-12+056999999V0202601N002610096019N0140001N1-00201-00781101961ADDAY121061AY221061GA1051+009601061GF105991051051008001001001MA1999999095111MD1110231+9999MW1051OA149901241REMSYN094AAXX  02124 06660 31564 52605 11020 21078 39511 40196 51023 70522 85500 333 85632 91124 91212;
0128066600999992010010213004+47383+008567FM-12+056999999V0202601N004119999999N9999999N1-00101-00731102011ADDMA1999999095181MD1310201+9999OA149900671REMSYN076AAXX  02134 06660 33/// /2608 11010 21073 39518 40201 53020 333 91113 91208;
0128066600999992010010214004+47383+008567FM-12+056999999V0202601N002619999999N9999999N1-00151-00821102101ADDMA1999999095251MD1219999+9999OA149900671REMSYN076AAXX  02144 06660 33/// /2605 11015 21082 39525 40210 52/// 333 91113 91208;
0182066600999992010010215004+47383+008567FM-12+056999999V0202701N002112200019N0200001N1-00161-00861102171ADDGA1021+009601061GF103991021051008001001011MA1999999095311MD1210201+9999OA149900931REMSYN088AAXX  02154 06660 32570 32704 11016 21086 39531 40217 52020 82501 333 82632 91118 91210;
0128066600999992010010216004+47383+008567FM-12+056999999V0202501N001519999999N9999999N1-00231-00891102251ADDMA1999999095371MD1210191+9999OA149900571REMSYN076AAXX  02164 06660 33/// /2503 11023 21089 39537 40225 52019 333 91111 91207;
0128066600999992010010217004+47383+008567FM-12+056999999V0202901N002119999999N9999999N1-00271-00871102341ADDMA1999999095441MD1310191+9999OA149900571REMSYN076AAXX  02174 06660 33/// /2904 11027 21087 39544 40234 53019 333 91111 91207;
0271066600999992010010218004+47383+008567FM-12+056999999V0202701N002612200019N0200001N1-00301-00821102391ADDAJ199992999999999AL19900091GA1031+014401061GF103991031051012501001001IA1309KA1120M-00091MA1999999095481MD1110171+9999OA149900981REMSYN112AAXX  02184 06660 32670 32705 11030 21082 39548 40239 51017 83500 333 11009 42998 83648 90766 93100 91119 91210;EQDQ01  09982SNDP  
0128066600999992010010219004+47383+008567FM-12+056999999V0202801N002119999999N9999999N1-00341-00871102431ADDMA1999999095511MD1110141+9999OA149900461REMSYN076AAXX  02194 06660 33/// /2804 11034 21087 39551 40243 51014 333 91109 91205;
0128066600999992010010220004+47383+008567FM-12+056999999V0209999C000019999999N9999999N1-00431-00771102471ADDMA1999999095521MD1210081+9999OA149900461REMSYN076AAXX  02204 06660 33/// /0000 11043 21077 39552 40247 52008 333 91109 91205;
0128066600999992010010221004+47383+008567FM-12+056999999V0201901N001019999999N9999999N1-00451-00751102461ADDMA1999999095511MD1210031+9999OA149900571REMSYN076AAXX  02214 06660 33/// /1902 11045 21075 39551 40246 52003 333 91111 91207;
0128066600999992010010222004+47383+008567FM-12+056999999V0201801N001019999999N9999999N1-00481-00711102481ADDMA1999999095521MD1510011+9999OA149900261REMSYN076AAXX  02224 06660 33/// /1802 11048 21071 39552 40248 55001 333 91105 91203;
0128066600999992010010223004+47383+008567FM-12+056999999V0201801N001519999999N9999999N1-00471-00701102491ADDMA1999999095531MD1210011+9999OA149900261REMSYN076AAXX  02234 06660 33/// /1803 11047 21070 39553 40249 52001 333 91105 91203;
0170066600999992010010300004+47383+008567FM-12+056999999V0202201N001012200019N0400001N1-00491-00741102481ADDGA1001+999999999GF100991001001999999001001MA1999999095521MD1010011+9999OA149900671REMSYN076AAXX  03004 06660 32982 02202 11049 21074 39552 40248 50001 333 91113 91208;
0128066600999992010010301004+47383+008567FM-12+056999999V0202201N002119999999N9999999N1-00481-00771102501ADDMA1999999095541MD1210021+9999OA149900361REMSYN076AAXX  03014 06660 33/// /2204 11048 21077 39554 40250 52002 333 91107 91204;
